{
  "_format": "hh-sol-artifact-1",
  "contractName": "SingleSwap",
  "sourceName": "contracts/SingleSwap.sol",
  "abi": [
    {
      "inputs": [],
      "stateMutability": "nonpayable",
      "type": "constructor"
    },
    {
      "inputs": [],
      "name": "LINK",
      "outputs": [
        {
          "internalType": "address",
          "name": "",
          "type": "address"
        }
      ],
      "stateMutability": "view",
      "type": "function"
    },
    {
      "inputs": [],
      "name": "WETH",
      "outputs": [
        {
          "internalType": "address",
          "name": "",
          "type": "address"
        }
      ],
      "stateMutability": "view",
      "type": "function"
    },
    {
      "inputs": [],
      "name": "linkToken",
      "outputs": [
        {
          "internalType": "contract IERC20",
          "name": "",
          "type": "address"
        }
      ],
      "stateMutability": "view",
      "type": "function"
    },
    {
      "inputs": [],
      "name": "poolFee",
      "outputs": [
        {
          "internalType": "uint24",
          "name": "",
          "type": "uint24"
        }
      ],
      "stateMutability": "view",
      "type": "function"
    },
    {
      "inputs": [],
      "name": "routerAddress",
      "outputs": [
        {
          "internalType": "address",
          "name": "",
          "type": "address"
        }
      ],
      "stateMutability": "view",
      "type": "function"
    },
    {
      "inputs": [
        {
          "internalType": "uint256",
          "name": "amountIn",
          "type": "uint256"
        }
      ],
      "name": "swapExactInputSingle",
      "outputs": [
        {
          "internalType": "uint256",
          "name": "amountOut",
          "type": "uint256"
        }
      ],
      "stateMutability": "nonpayable",
      "type": "function"
    },
    {
      "inputs": [
        {
          "internalType": "uint256",
          "name": "amountOut",
          "type": "uint256"
        },
        {
          "internalType": "uint256",
          "name": "amountInMaximum",
          "type": "uint256"
        }
      ],
      "name": "swapExactOutputSingle",
      "outputs": [
        {
          "internalType": "uint256",
          "name": "amountIn",
          "type": "uint256"
        }
      ],
      "stateMutability": "nonpayable",
      "type": "function"
    },
    {
      "inputs": [],
      "name": "swapRouter",
      "outputs": [
        {
          "internalType": "contract ISwapRouter",
          "name": "",
          "type": "address"
        }
      ],
      "stateMutability": "view",
      "type": "function"
    }
  ],
  "bytecode": "0x60a06040527fe592427a0aece92de3edee1f18e0157c05861564000000000000000000000000608052600080546001600160a01b03191673326c977e6efc84e512bb9c30f76e30c160ed06fb17905534801561005a57600080fd5b5060805160601c6108336100916000398061020852806102f752806103a752806103f252806104e152806105a352506108336000f3fe608060405234801561001057600080fd5b50600436106100885760003560e01c806373bd43ad1161005b57806373bd43ad146100d0578063ad5c4648146100f0578063c31c9c07146100f8578063c4b69a181461010057610088565b8063089fe6aa1461008d5780631b6b6d23146100ab5780633268cc56146100c057806357970e93146100c8575b600080fd5b610095610113565b6040516100a291906107e4565b60405180910390f35b6100b3610119565b6040516100a2919061077e565b6100b3610131565b6100b3610149565b6100e36100de3660046106cd565b610158565b6040516100a291906107f4565b6100b361038d565b6100b36103a5565b6100e361010e3660046106fd565b6103c9565b610bb881565b73326c977e6efc84e512bb9c30f76e30c160ed06fb81565b73e592427a0aece92de3edee1f18e0157c0586156481565b6000546001600160a01b031681565b600080546040516323b872dd60e01b81526001600160a01b03909116906323b872dd9061018d90339030908790600401610792565b602060405180830381600087803b1580156101a757600080fd5b505af11580156101bb573d6000803e3d6000fd5b505050506040513d601f19601f820116820180604052508101906101df91906106ad565b5060005460405163095ea7b360e01b81526001600160a01b039091169063095ea7b390610232907f00000000000000000000000000000000000000000000000000000000000000009086906004016107b6565b602060405180830381600087803b15801561024c57600080fd5b505af1158015610260573d6000803e3d6000fd5b505050506040513d601f19601f8201168201806040525081019061028491906106ad565b50604080516101008101825273326c977e6efc84e512bb9c30f76e30c160ed06fb815273b4fbf271143f4fbf7b91a5ded31805e42b2208d66020820152610bb88183015233606082015242608082015260a08101849052600060c0820181905260e0820152905163414bf38960e01b81527f00000000000000000000000000000000000000000000000000000000000000006001600160a01b03169063414bf389906103349084906004016107cf565b602060405180830381600087803b15801561034e57600080fd5b505af1158015610362573d6000803e3d6000fd5b505050506040513d601f19601f8201168201806040525081019061038691906106e5565b9392505050565b73b4fbf271143f4fbf7b91a5ded31805e42b2208d681565b7f000000000000000000000000000000000000000000000000000000000000000081565b6000805460405163095ea7b360e01b81526001600160a01b039091169063095ea7b39061041c907f00000000000000000000000000000000000000000000000000000000000000009086906004016107b6565b602060405180830381600087803b15801561043657600080fd5b505af115801561044a573d6000803e3d6000fd5b505050506040513d601f19601f8201168201806040525081019061046e91906106ad565b50604080516101008101825273326c977e6efc84e512bb9c30f76e30c160ed06fb815273b4fbf271143f4fbf7b91a5ded31805e42b2208d66020820152610bb88183015233606082015242608082015260a0810185905260c08101849052600060e08201529051631b67c43360e31b81527f00000000000000000000000000000000000000000000000000000000000000006001600160a01b03169063db3e21989061051e9084906004016107cf565b602060405180830381600087803b15801561053857600080fd5b505af115801561054c573d6000803e3d6000fd5b505050506040513d601f19601f8201168201806040525081019061057091906106e5565b9150828210156106a6576000805460405163095ea7b360e01b81526001600160a01b039091169163095ea7b3916105cb917f0000000000000000000000000000000000000000000000000000000000000000916004016107b6565b602060405180830381600087803b1580156105e557600080fd5b505af11580156105f9573d6000803e3d6000fd5b505050506040513d601f19601f8201168201806040525081019061061d91906106ad565b5060005460405163a9059cbb60e01b81526001600160a01b039091169063a9059cbb90610652903090868803906004016107b6565b602060405180830381600087803b15801561066c57600080fd5b505af1158015610680573d6000803e3d6000fd5b505050506040513d601f19601f820116820180604052508101906106a491906106ad565b505b5092915050565b6000602082840312156106be578081fd5b81518015158114610386578182fd5b6000602082840312156106de578081fd5b5035919050565b6000602082840312156106f6578081fd5b5051919050565b6000806040838503121561070f578081fd5b50508035926020909101359150565b80516001600160a01b03908116835260208083015182169084015260408083015162ffffff16908401526060808301518216908401526080808301519084015260a0828101519084015260c0808301519084015260e09182015116910152565b6001600160a01b0391909116815260200190565b6001600160a01b039384168152919092166020820152604081019190915260600190565b6001600160a01b03929092168252602082015260400190565b61010081016107de828461071e565b92915050565b62ffffff91909116815260200190565b9081526020019056fea2646970667358221220b27ac1c0883ab1fe3b7de21928518e7a570e19edac9e3ab6a48f8263738dec7364736f6c63430007060033",
  "linkReferences": {},
  "deployedLinkReferences": {}
}